S0180000696E7665727465725F646973706C61792E7372656348
S3150000000050060020450F0000B50D0000410F00000E
S31500000010410F0000410F0000410F0000410F00009A
S31500000020000000000000000000000000410F00007A
S31500000030410F000000000000410F0000410F0000CA
S315000000402507000099060000B1070000F10700002F
S31500000050000000000000000000000000000000009A
S31500000060000000000000000000000000000000008A
S31500000070000000000000000000000000000000007A
S31500000080000000000000000000000000000000006A
S31500000090000000000000000000000000000000005A
S315000000A0000000000000000000000000000000004A
S315000000B0000000000000000000000000000000003A
S315000000C0000000000000000000000000000000002A
S315000000D0000000000000000000000000000000001A
S315000000E0000000000000000000000000000000000A
S315000000F000000000000000000000000000000000FA
S3150000010000000000000000000000000000000000E9
S3150000011000000000000000000000000000000000D9
S3150000012000000000000000000000000000000000C9
S3150000013000000000000000000000000000000000B9
S3150000014000000000000000000000000000000000A9
S315000001500000000000000000000000000000000099
S315000001600000000000000000000000000000000089
S315000001700000000000000000000000000000000079
S315000001800000000000000000000000000000000069
S315000001900000000000000000000000000000000059
S315000001A00000000000000000000000000000000049
S315000001B00000000000000000000000000000000039
S315000001C0FFFFFFFFFFFFFFFFFFFFFFFFFFFFFFFF39
S315000001D0FFFFFFFFFFFFFFFFFFFFFFFFFFFFFFFF29
S315000001E0FFFFFFFFFFFFFFFFFFFFFFFFFFFFFFFF19
S315000001F0FFFFFFFFFFFFFFFFFFFFFFFFFFFFFFFF09
S3150000020010B5054C237833B9044B13B1044800E00C
S3150000021000BF0123237010BD28000020000000004D
S31500000220A014000008B5034B1BB10349034800E0C6
S3150000023000BF08BD000000002C000020A014000034
S315000002400379022B02D10122014B1A70704700BFBD
S315000002504400002080B582B06D4600270F49104843
S3150000026000F07CF84FF47A71642000F06FFD0D4BBE
S315000002700D4C93E8030085E80300094E0822294641
S315000002803046277000F024F82378002BFCD04FF47A
S315000002907A71084600F05AFDF0E700BFBC10000076
S315000002A050000020A810000044000020022800D0C2
S315000002B07047024B0248596800F042BCB01000007B
S315000002C04800002008B5FFF7C5FF002008BD00BFA5
S315000002D010B4046AA37803F07B03A370837803F059
S315000002E00303D21A0B440261A278C360837842F0FA
S315000002F0800203F00303022BA27005D00B780020C6
S31500000300E3705DF8044B70470B88002043F47E438E
S31500000310E3815DF8044B7047F0B5846A85B0054605
S315000003200F4694466E46B4B194E80F0086E80F0077
S31500000330EB6920461B7884F804C02360EB6AC4E9A5
S3150000034002736B6A9847AC6A1CB196E80F0084E8A2
S315000003500F0005B0F0BD3446EAE700BF2DE9F047CF
S315000003600024034601250A78047002F5800202F58E
S315000003708C52120202624A69C16142629A788869A5
S3150000038065F301029C62D8629A704A7822B902200B
S315000003909A7860F301029A70012491F90B50B94AD8
S315000003A0680905F01F07203004FA07F78E7A42F82D
S315000003B02070BFF34F8FBFF36F8FB34805F1C007AF
S315000003C050F827C036016FF3104C40F827C0AF4FE6
S315000003D002EB050CF6B28CF8006347F8253091F96C
S315000003E005500E794FEA551C05F01F0E0CF1200C36
S315000003F004FA0EFE42F82CE0BFF34F8FBFF36F8F67
S3150000040005F1C00C50F82CE036016FF3104E40F8A1
S315000004102CE0F6B202EB050C8CF8006347F82530A9
S3150000042091F907508E794FEA551C05F01F0E0CF115
S31500000430200C04FA0EFE42F82CE0BFF34F8FBFF3F8
S315000004406F8F05F1C00C50F82CE036016FF3104E9B
S3150000045040F82CE0F6B202EB050C8CF8006347F886
S31500000460253091F909600D7A4FEA561C06F01F0EE9
S315000004700CF1200C04FA0EFE42F82CE0BFF34F8F6D
S31500000480BFF36F8F06F1C00C50F82CE02D01EDB2D2
S3150000049032446FF3104E40F82CE082F8005347F8D0
S315000004A02630EFF3108584F310884FF00044784A25
S315000004B00E785068F44020EA04005060526885F3D4
S315000004C01088002040F2F9341A6A062590701071DF
S315000004D050729072D0725083087824FA00F0C007E8
S315000004E044BF4020D07440F2F930CC6915770D78BE
S315000004F08E78E840C70748BF4FF478404D78C978F2
S3150000050048BF9082C900032D41EA061100F0B5806C
S31500000510002D14BFF220E220C9B211709071217B28
S3150000052008290EBF0A21490001F0020151736178C2
S31500000530A078C901400100F02000C9B201430020A3
S3150000054010722678B01E012840F28E80C9B2D17191
S31500000550616888784D785070107865F301001070E6
S31500000560C87809789074D07901F05C0100F0A30096
S315000005700143D17100204FF00108C3E90300C3E92C
S315000005800500D3F81C90404999F905C0414F0CF17C
S31500000590C00E4FEA5C1551F82EA0AD000CF01F0CF2
S315000005A005F1604508FA0CFC05F5614560F3104A53
S315000005B041F82EA0C5F880C1C5F800C099F90BC056
S315000005C006F003060CF1C00E4FEA5C1551F82EA09A
S315000005D0AD000CF01F0C05F1604508FA0CFC05F5A2
S315000005E0614560F3104A41F82EA0C5F880C1C5F8F0
S315000005F000C099F907E046F070060EF1C00A4FEA0E
S315000006005E1C0EF01F0E08FA0EF54FEA8C0C51F820
S315000006102AE00CF1604C0CF5614C60F3104E41F889
S315000006202AE0CCF88051CCF8005099F9095005F130
S31500000630C00C51F82CE060F3104E41F82CE069092B
S315000006408900B4F80AC001F1604105F01F0408FAF8
S3150000065004F401F56141C1F880410C609670A3F87D
S3150000066008C05F60BDE8F087FF20022E08BF41F09A
S315000006701001C9B25070D1717CE7F22041F04001FF
S315000006804AE700BF00E100E000600040C40000202F
S31500000690004008405549435330B4EFF30383103B01
S315000006A05BB21E4A03F1C00152F821001C4C6FF3E5
S315000006B0104042F8210054F82300C3691B691BB19E
S315000006C003691BB130BC704703697BB9D0E90824C4
S315000006D00021937803F07F0343F004039370C16015
S315000006E0002CEFD030BC8022FFF716BE827802F0D5
S315000006F003010229C1680BD0046A91F800C084F88E
S3150000070003C002F003029B1A0A44C0E90323D8E798
S315000007100C88056A44F47E44EC81F2E700600040F0
S31500000720C400002010B582B0EFF30383103B1E4ACD
S315000007305BB203F1C00152F821001C4C6FF310406C
S3150000074042F8210054F82340A27802F00303022B5A
S31500000750236A0CBF198A5979A3690CBFC1F3080132
S31500000760C9B2019143B9636AB3B10422204602B00B
S31500000770BDE81040FFF7D0BD02F0030201A9606991
S3150000078000F048FCD4E90521A37803F003031A44DA
S31500000790C91AC4E9052109B102B010BD636A002B6C
S315000007A0FAD00122E2E700BF00600040C40000204A
S315000007B010B5EFF303840C4B103C64B253F82400DD
S315000007C0D0E90821937803F07B03937019B10222D4
S315000007D00021FFF7A1FD054BC03453F824206FF329
S315000007E0104243F8242010BDC400002000600040E1
S315000007F010B5EFF30384194B103C64B253F8240090
S31500000800837803F00303022B036A0CBF198A597914
S3150000081093F804C00CBFC1F30801C9B21CF0100F55
S315000008200CF0380206D093F81CC01CF0010F08BF6C
S3150000083042F0400293F804C00CF0C70C83F804C0E1
S31500000840436A0BB1FFF768FD054BC03453F824200B
S315000008506FF3104243F8242010BD00BFC4000020EF
S31500000860006000400022034610461A60704700BF31
S315000008700B0A10B41B01064C53FA81F154F82130CF
S315000008800020C3F340035DF8044B1370704700BFAC
S3150000089000080840090A490101F1804101F50021DB
S315000008A04B68002013807047090A490123EA020CAD
S315000008B001F180411A4001F5002142EA0C42002074
S315000008C08A6070470123C8B283404AB91A040B0AEA
S315000008D05B0103F1804303F5002300209A60704713
S315000008E09AB2F4E7090A490101F1804101F50021B4
S315000008F010B40C6802EA030C4CEA040C62EA030228
S3150000090002EA0C0200205DF8044B0A60704700BF43
S31500000910090A490101F1804101F500214B680020D7
S31500000920C3F30F4313807047012310B44FEA112C11
S315000009304FEA4C1C0CF1804C0CF5002CDCF8044002
S31500000940C9B203FA01F18BB201EA1441C91AB1FA2C
S3150000095081F1490900205DF8044B1170704700BF12
S31500000960090A490123EA020C01F180411A4001F506
S31500000970002142EA0C420020CA607047014B002069
S315000009801A707047000D0840012A14D04FF48030C9
S315000009900B0A5B0103F1804303F5002310B4CAB2CE
S315000009A0DC6800FA02F22243120C120400205DF801
S315000009B0044BDA6070470B0A5B0103F1804303F5D1
S315000009C00023D868C9B28A40024392B20020DA6096
S315000009D0704700BF38B50488002C4CD0002143680E
S315000009E040F20245043303EBC40040F2034C40F2EC
S315000009F0044E0C460FE062452FD153F8042C02F04A
S31500000A00B852B2F1807F14BF41F0020144F00204F3
S31500000A100833834210D01A88AA42ECD153F8042C2A
S31500000A20083302F0B852B2F1807F14BF41F00101E1
S31500000A3044F001048342EED1C943CDB2012000F057
S31500000A4055FA0E4B012093F8BB2414432C4083F82F
S31500000A50BB44BDE8384000F019BA7245D8D153F806
S31500000A60042C02F0B852B2F1807F0CBF44F00404AB
S31500000A7041F00401CCE7FF25E0E700BF00E00140BC
S31500000A80F8B50446FFF7A6FFEFF31082012383F3C0
S31500000A901088284E33681BB92749CB704023CB708A
S31500000AA033680133336082F3108823887BB362682E
S31500000AB003F1FF3E1FFA8EFE02F108011F4C01EB07
S31500000AC0CE0E08E0D2B21B0113448E450A4644F806
S31500000AD023001CD008311068928810F4803F4FEA3A
S31500000AE01223EFD0130AD2B202EB031C54F82C7077
S31500000AF01B01134420F480356FF310478E4544F8EC
S31500000B002C700A4644F82C5044F82300E2D1EFF347
S31500000B101082012383F31088336813B13368013BD5
S31500000B20336033681BB980200349CB70C87082F3E9
S31500000B301088F8BDC0000020000D084000080840DD
S31500000B4008B5034B03600846FFF79AFF002008BD6F
S31500000B5054524F5008B50846FFF792FF002008BDD3
S31500000B6070B5012684B002AB68460C461546019363
S31500000B70ADF80060ADF80C100292FFF72BFFEFF313
S31500000B80108286F310881D490B681BB940261C4845
S31500000B90C370C6700B6801330B6082F31088EA03DA
S31500000BA04FEA1423E4B219D41B01164A234442F82F
S31500000BB02350EFF31082012383F310880B6813B1DF
S31500000BC00B68013B0B600B681BB980200C49CB708E
S31500000BD0C87082F31088002004B070BD094A04EB87
S31500000BE0031052F820601B016FF3104642F8206094
S31500000BF025F4803642F82060D7E700BFC000002009
S31500000C00000D084000080840064B074993F82600E7
S31500000C101A6A51F82030C2F302620449D3400B60CD
S31500000C20704700BF00E001400C0000204C0200208D
S31500000C30F8B54AF2035001233749384AA1F8FE03B2
S31500000C40A2F80431B2F804319BB2002BFAD101218B
S31500000C504FF400454FF0090C314CDFF8DCE0314E23
S31500000C60C4F804E0DFF8D4E02B48C4F80CE02E4FBB
S31500000C70A2F800112D4AB16031606261276090F8D8
S31500000C802620A5602561056A54F82220C5F3026571
S31500000C90EA40274D2A6080F8133480F8A2C090F805
S31500000CA0803493B300231C4981F8813481F8803461
S31500000CB081F8323091F83C301A07FBD543F2021026
S31500000CC00023154A088581F82A3092F83C309B06A5
S31500000CD0FBD503200521114B83F81C01154B82F827
S31500000CE02610136292F82630116A54F82330C1F3A5
S31500000CF00261CB402B6001204FF4254382F830007F
S31500000D0082F85200A2F8FE33F8BD80F8801440F253
S31500000D10C44000F01BF8C5E700E0014000C00140F8
S31500000D200C00002000700040002D310100C2EB0BCA
S31500000D304C0200202112012000127A0000366E01BA
S31500000D40A0F101000028FBD1704700BF10B54FF499
S31500000D507A72164C164B24684FF0000EB3FBF4FC67
S31500000D604FF0FF3300FB01F1A1FB020483427EEB4F
S31500000D70040407D3B0FBFCF0800880B1BDE8104046
S31500000D80FFF7DEBF4FEA8C0CB1FBFCF1A1FB0212B0
S31500000D908B427EEB020203D308460028EED110BD3B
S31500000DA01846BDE81040FFF7CBBF00BF4C0200203D
S31500000DB000CA9A3B70B500240A4B0B4EB3F840515B
S31500000DC0ADB225FA04F3DB07E0B203D556F82430BA
S31500000DD003B198470134102CF3D1024BA3F83051DC
S31500000DE070BD00BF006000408000002030B56FF08D
S31500000DF0FF0585B0032000F079F84FF0FF311F4C56
S31500000E001F482246856400230125CDE9011103917F
S31500000E1004F1C00E32F8020F590960B104A800EBC4
S31500000E20810151F80C0C03F01F0C05FA0CFC20EAAA
S31500000E300C0041F80C0C724503F10103EAD101994B
S31500000E40104B0F4A03201167C3F8801202995167AD
S31500000E50C3F8841203999167C3F8881200F016F854
S31500000E600023094803F1C00234F8021F0133602B46
S31500000E7040F82210F6D105B030BD00BF9E13000029
S31500000E800080004000E100E000600040EFF31081C8
S31500000E90012383F31088124B33F8102092B22AB143
S31500000EA033F81020013A92B223F8102033F81030AC
S31500000EB09BB293B90B4A10B4B2F8FE330A4C9BB2FC
S31500000EC034F8100043F4254323EA0003A2F8FE3366
S31500000ED081F310885DF8044B704781F310887047E2
S31500000EE04402002000E001409814000030B4EFF303
S31500000EF01081012383F310880E4A32F810309BB21A
S31500000F006BB90D4C0D4DB4F8FE3335F810C09BB2DD
S31500000F1043EA0C0343F425439BB2A4F8FE3332F8AC
S31500000F20103001339BB222F8103081F3108830BCA8
S31500000F30704700BF4402002000E001409814000002
S31500000F4000BE704708B500F003F8FFF7BBF9FEE7EF
S31500000F504FF47001234B244A70B50020C3F8881063
S31500000F609A60FFF7A3F9FFF763FE0120FFF79EF9EA
S31500000F701E4B83F30A881E481E4A0021121A00F0EF
S31500000F8056F81D481D4A1E49121A00F043F81D4D19
S31500000F901D4B5B1B002B07DD00249E1055F8043B00
S31500000FA001349847A642F9DCFFF72EFE0320FFF72F
S31500000FB09DFF00234FF6FF70144903F10802013329
S31500000FC0092B21F81200F8D10320FFF75FFF02205A
S31500000FD0FFF76CF9FFF70AFFBDE87040002000F04C
S31500000FE017B800BF00ED00E000000000500200202E
S31500000FF02800002050020020000000200C000020E5
S31500001000A41400000400002008000020000D084081
S31500001010704700BF0A44431E914200D1704710B585
S3150000102011F8014B914203F8014FF9D110BD02446A
S315000010300346934200D1704703F8011BF9E7FFFF0F
S315000010404275696C7420776974682052656E6573A1
S31500001050617320416476616E63656420466C6578D1
S3150000106069626C6520536F667477617265205061A2
S31500001070636B6167652076657273696F6E20332EC8
S31500001080382E3000332E382E3000000000000803C2
S31500001090F8B500BFF8BC08BC9E467047F8B500BF5F
S315000010A0F8BC08BC9E4670475AA505821000002869
S315000010B048000020F0100000601400000402000048
S315000010C00C000C010C020C030000000000000000E4
S315000010D04102000000000000DC10000000010000DA
S315000010E0000000200F00FFFF00000000FFFF0000CF
S315000010F055000000F810000000800000000000000D
S315000011000080000001000000004000000200000016
S31500001110008000000300000004000000040000003E
S31500001120004000000500000000400000060000002E
S3150000113000800000070000001040000008000000CA
S315000011400400000009000000008000000E000000FE
S31500001150008000000F000000000C011C00010000D0
S31500001160000C011C01010000000C011C0201000022
S31500001170000C011C03010000000C011C040100000E
S31500001180000C011C05010000000C011C06010000FA
S31500001190000C011C0701000000000100080100000E
S315000011A00000010009010000000001000A01000022
S315000011B0040000000B010000040000000F01000005
S315000011C00000010602020000000001060302000002
S315000011D000000106040200000000010605020000EE
S315000011E000000104060200000000010407020000DE
S315000011F000000100000300000000010601030000DA
S3150000120004000000030300000400000004030000C3
S31500001210000C011105030000000C0111060300007B
S31500001220000C011107030000000C01110803000067
S31500001230000C011109030000000C01110A03000053
S31500001240040000000B030000040000000C03000073
S31500001250040000000D03000004000000000400006C
S31500001260000C011701040000000C01170204000025
S31500001270050C000003040000040000000404000044
S31500001280000C011705040000000C011706040000FD
S315000012900000011307040000000001030804000019
S315000012A01040000009040000000001060A040000C6
S315000012B0000001060B040000000001060C040000FB
S315000012C0000001060D040000104000000E0400009E
S315000012D0040000000F0400000000011300050000D8
S315000012E0000001130105000040000104050500008F
S315000012F04000010406050000000401070B0500007C
S31500001300000401070C050000000C011C000600008B
S31500001310000C011C01060000000C011C0206000066
S31500001320000C011C0A060000040000000B06000069
S31500001330040000000C060000000001050D06000078
S31500001340000001050E060000000C01170007000052
S31500001350000C011701070000000C0117020700002E
S31500001360000C011703070000000C0117040700001A
S31500001370000C011705070000040000000807000024
S315000013800400000009070000040000000A0700002E
S31500001390040000000C070000040000000D07000018
S315000013A0980199019A019B010000000000000000CD
S315000013B00000000000000000000000000000000027
S315000013C00000000000000000000000000000000017
S315000013D00000000000000000000000000000000007
S315000013E000000000000000000000000000000000F7
S315000013F000000000000000000000000000000000E7
S3150000140000000000000000000000000000000000D6
S3150000141000000000000000000000000000000000C6
S3150000142000000000000000000000000000000000B6
S3150000143000000000000000000000000000000000A6
S315000014400000000000000000000000000000000096
S315000014500000000000000000000000000000000086
S31500001460410B000065080000550B0000610B0000F1
S3150000147029090000890900007D09000071080000A3
S31500001480C5080000E5080000110900006109000018
S3150000149095080000A90800000100020008001000DD
S309000014A00000000042
S311000014A440003500250200000102000097
S3150100A100FFFFFFFFFFFFFFFFFFFFFFFFFFFFFFFF58
S3150100A110FFFFFFFFFFFFFFFFFFFFFFFFFFFFFFFF48
S3150100A120FFFFFFFFFFFFFFFFFFFFFFFFFFFFFFFF38
S30D0100A130FFFFFFFFFFFFFFFF28
S3150100A200FFFDFFFFFFFFFFFFFFFFFFFFFFFFFFFF59
S3150100A210FFFFFFFFFFFFFFFFFFFFFFFFFFFFFFFF47
S3150100A220FFFFFFFFFFFFFFFFFFFFFFFFFFFFFFFF37
S3150100A230FFFFFFFFFFFFFFFFFFFFFFFFFFFFFFFF27
S3150100A240FFFFFFFFFFFFFFFFFFFFFFFFFFFFFFFF17
S3150100A250FFFFFFFFFFFFFFFFFFFFFFFFFFFFFFFF07
S3150100A260FFFFFFFFFFFFFFFFFFFFFFFFFFFFFFFFF7
S3150100A270FFFFFFFFFFFFFFFFFFFFFFFFFFFFFFFFE7
S3150100A280F8F8FFFFFFFFFFFFFFFFFFFFFFFFFFFFE5
S3150100A290FFFFFFFFFFFFFFFFFFFFFFFFFFFFFFFFC7
S3150100A2A0FFFFFFFFFFFFFFFFFFFFFFFFFFFFFFFFB7
S3150100A2B0FFFFFFFFFFFFFFFFFFFFFFFFFFFFFFFFA7
S3110100A2C0FFFFFFFFFFFFFFFFFFFFFFFF97
S70500000F45A6
